:100000000C945D000C9485000C9485000C94850084
:100010000C9485000C9485000C9485000C9485004C
:100020000C9485000C9485000C9485000C9485003C
:100030000C9485000C9485000C9485000C9485002C
:100040000C9467040C9485000C9485000C94850036
:100050000C9485000C9485000C9485000C9485000C
:100060000C9485000C94850000000008000201003B
:100070000003040700000000000000000000000072
:10008000250028002B0000000000240027002A0083
:10009000040404040404040402020202020203032E
:1000A0000303030301020408102040800102040836
:1000B0001020010204081020B10411241FBECFEF4C
:1000C000D8E0DEBFCDBF11E0A0E0B1E0E2E2FCE1AC
:1000D00002C005900D92AA37B107D9F721E0AAE72F
:1000E000B1E001C01D92AB3AB207E1F710E0CDE5F7
:1000F000D0E004C02197FE010E94310BCC35D1071E
:10010000C9F70E94CF040C940F0E0C94000090E0ED
:10011000FC01EC55FF4F249180579F4FFC018491C7
:10012000882399F090E0880F991FFC01EA57FF4F50
:10013000A591B491FC01E458FF4F859194918FB73C
:10014000F894EC91E22BEC938FBF089590E0FC01C2
:10015000E859FF4F2491FC01EC55FF4F3491FC010D
:10016000E057FF4FE491EE23C9F0222339F023300A
:1001700001F1A8F4213019F1223029F1F0E0EE0F5D
:10018000FF1FE458FF4FA591B4918FB7F894EC91FD
:10019000611126C030953E233C938FBF08952730D0
:1001A000A9F02830C9F0243049F7809180008F7D74
:1001B00003C0809180008F7780938000DFCF84B56B
:1001C0008F7784BDDBCF84B58F7DFBCF8091B0006E
:1001D0008F778093B000D2CF8091B0008F7DF9CF20
:1001E0003E2BDACFAF92BF92CF92DF92EF92FF9287
:1001F0000F931F93CF93DF936C017B018B01040F4F
:10020000151FEB015E01AE18BF08C017D10759F0EA
:100210006991D601ED91FC910190F081E02DC6012C
:100220000995892B79F7C501DF91CF911F910F9126
:10023000FF90EF90DF90CF90BF90AF90089508951A
:1002400090E080E00895FC0101900020E9F73197EB
:10025000AF01481B590BBC0183E991E00C94F200FB
:10026000CF93DF93EC0160E08E810E94A60061E0F5
:100270008E810E94A60060E08E810E94A6008BE81D
:1002800091E00197F1F7DF91CF910895CF92DF923E
:10029000EF92FF920F931F93CF93DF936C017C013A
:1002A00087E0E80EF11CD0E0C0E0062F10E0B801B6
:1002B0000C2E02C0759567950A94E2F76170F701FC
:1002C00081917F010E94A6002196C430D10579F763
:1002D000C601DF91CF911F910F91FF90EF90DF90BA
:1002E000CF900C943001CF92DF92EF92FF920F9358
:1002F0001F93CF93DF93EC01F62E642F8C810E9425
:10030000A6008D818F3F19F060E00E94A6000F2D9E
:1003100010E08F8584FF25C06E0187E0C80ED11CD8
:10032000F12CE12CB8010E2C02C0759567950A944A
:10033000E2F76170F60181916F010E94A600FFEF64
:10034000EF1AFF0A88E0E816F10461F7CE01DF91A9
:10035000CF911F910F91FF90EF90DF90CF900C9471
:100360003001B80184E0759567958A95E1F7CE0173
:100370000E9446016F2DCE01DF91CF911F910F9109
:10038000FF90EF90DF90CF900C94460140E0682FF3
:1003900083E991E00C94730181E00E94C6018BE334
:1003A0009FE10197F1F70895CF93DF93823029F40D
:1003B0009091A20198609093A2018093A60110925F
:1003C000A70180E48093A80180E18093A90180E5E2
:1003D0008093AA01809197010E94870080919801E3
:1003E0008F3F11F00E948700809199010E94870041
:1003F000C3E9D1E09E01235931408091A20184FDDF
:100400000AC084E090E02196281739073CF48E81D9
:100410000E948700EFCF88E090E0F5CF8BE39DE06E
:100420000197F1F760E0809197010E94A60060E0DB
:10043000809199010E94A600809198018F3F19F048
:1004400060E00E94A6008091A20184FD34C063E0B8
:1004500083E991E00E944601CBE4D6E4CE01019706
:10046000F1F763E083E991E00E9446012197F1F7FB
:1004700063E083E991E00E94460183E592E0019701
:10048000F1F762E083E991E00E9446018091A201C8
:1004900080620E94C60184E08093A3018CE00E94E8
:1004A000C6010E94CC0182E08093A40186E0DF9126
:1004B000CF910C94C60180620E94C6018BE496E441
:1004C0000197F1F78091A20180620E94C60183E545
:1004D00092E00197F1F78091A20180620E94C6012B
:1004E000D5CF643008F063E09091A601691710F051
:1004F0006FEF690FE62FF0E0ED56FE4F9489890FFC
:1005000080680C94C60141E00E94730181E090E094
:1005100008958F929F92AF92BF92CF92DF92EF9207
:10052000FF92CF93DF93CDB7DEB7A1970FB6F894C4
:10053000DEBF0FBECDBF6C01990FEE08FF08F7FEBE
:1005400047C041E06DE283E991E00E9473012227F8
:100550003327A9012C193D094E095F0919A2CE01C3
:1005600081967C019AE0892E912CA12CB12CCA0194
:10057000B901A50194010E94DF08605DF701629353
:100580007F01211531054105510589F790E080E093
:10059000309719F0CF010E9423017C01FFEFEF1A81
:1005A000FF0A88E591E00E9423018E0D9F1DA19610
:1005B0000FB6F894DEBF0FBECDBFDF91CF91FF9095
:1005C000EF90DF90CF90BF90AF909F908F90089565
:1005D000A701960119A2CE0181967C018AE0882E9E
:1005E000912CA12CB12CCA01B901A50194010E9442
:1005F000DF08605DF70162937F0121153105410538
:10060000510589F7309729F0CF010E9423017C0121
:10061000C8CFF12CE12CC5CF4F925F926F927F92A1
:100620008F929F92AF92BF92CF92DF92EF92FF9202
:100630000F931F93CF93DF93EC018B01B42EA22E67
:10064000E0904601F09047016090420170904001B7
:10065000E816F9060CF4DBC04701881A990A28E06D
:10066000821691040CF0CFC0C0904401D090450197
:10067000C601861B970B029708F0C5C00E94CC01EB
:10068000662D872D0E94710260E083E991E00E944F
:10069000830287E090E088199909C817D90744F1C7
:1006A00002301105A4F582E0C816D1046CF58C2F38
:1006B0008E19602F98E0E916F1048CF1C830D1054D
:1006C00004F18FE190E08C1B9D0B07971CF5023025
:1006D000110544F4602F82E0C816D10434F01016DE
:1006E0001106C4F4602F6C196F5F8C2F825118C0F3
:1006F000023011050CF083C022E0C216D1040CF0C8
:100700007AC0602F8C2F0CC010161106D4F6C8309A
:10071000D105BCF6602F6C196F5F8C2F8E19895F25
:100720000E9471026A2D83E991E00E9483029FEF8B
:1007300021EE84E0915020408040E1F700C00000AD
:1007400060914601709147016C1B7D0B072E000CD8
:10075000880B990B0E94B5096B017C0160914401E3
:1007600070914501601B710B072E000C880B990BD3
:100770000E94B5092B013C01A7019601C701B601F2
:100780000E94410A6B017C01A3019201C301B201E5
:100790000E94410A9B01AC01C701B6010E941109E8
:1007A0000E94B40AC1E0D0E001C0CC0FBA94EAF7CD
:1007B0000E947D0985B16B3071050CF085C0C8279A
:1007C000C5B98FEF91EE24E0815090402040E1F7D1
:1007D00000C00000DF91CF911F910F91FF90EF902B
:1007E000DF90CF90BF90AF909F908F907F906F9051
:1007F0005F904F900895101611060CF062CF602F95
:100800006C196F5F7FCFCE15DF050CF44AC06E0107
:10081000CE18DF0898E0C916D1040CF042C08090D1
:10082000440190904501C401801B910B0297C8F5CB
:100830000E94CC01662D872D0E94710260E083E941
:1008400091E00E948302C830D10574F40230110592
:1008500044F422E0821691040CF453CF10161106D2
:100860001CF4602F6819CDCF8FE190E08C1B9D0B9D
:10087000602F68196F5F873091055CF427E030E0E6
:100880002C193D098217930724F08C2F8E198A5F4B
:1008900047CF8FE190E08E199F0908970CF03DCF6C
:1008A00024CF0E94CC01662D872D0E94710260E04A
:1008B00083E991E00E9483028FEF91EE24E0815062
:1008C00090402040E1F73ACFC82BC5B983CF1F92A3
:1008D0000F920FB60F9211242F933F938F939F93F4
:1008E000AF93BF9380918F0190919001A09191015E
:1008F000B091920130918E0123E0230F2D3758F5EE
:100900000196A11DB11D20938E0180938F019093BC
:100910009001A0939101B093920180918A019091EE
:100920008B01A0918C01B0918D010196A11DB11D8B
:1009300080938A0190938B01A0938C01B0938D01D9
:10094000BF91AF919F918F913F912F910F900FBECB
:100950000F901F90189526E8230F0296A11DB11D38
:10096000D2CFE3E9F1E01382128280E591E0918336
:10097000808388E084838FEF858389E0868384E0A9
:10098000878385E0808786E0818787E0828713867A
:10099000148615861686178681E00C94D4018F92F2
:1009A0009F92AF92BF92CF92DF92EF92FF920F93FE
:1009B0001F93CF93DF93CDB7DEB764970FB6F8944C
:1009C000DEBF0FBECDBF90E080E00E9484088C01A6
:1009D0000F5F1F4FBC0190E080E06115710581053C
:1009E000910511F00E947B08B80190E080E00E9420
:1009F0008A0884B18C6384B985B18C6385B98AB166
:100A00008AB940E0E42E41E0F42E10E0812F8064AA
:100A10000E94C601670128E0C20ED11CF701619156
:100A20007F0183E991E00E948302EC14FD04B1F799
:100A3000185F103459F7FFEF21EE84E0F1502040A9
:100A40008040E1F700C000000E942C082FE1C22E78
:100A5000D12CE12CF12CA70196010E94AD087093D6
:100A60008501609384010E942C08A70196010E94D1
:100A7000AD0870938301609382010E942C08A70146
:100A800096010E94AD0870938101609380010E94DD
:100A90002C08A70196010E94AD0870937F01609316
:100AA0007E010E942C08A70196010E94AD08709358
:100AB0007D0160937C010E942C08A70196010E9491
:100AC000AD0870937B0160937A010E942C08A70106
:100AD00096010E94AD0870938901609388010E947D
:100AE0002C08A70196010E94AD08709387016093BE
:100AF00086019FEFE1EEF4E09150E040F040E1F735
:100B000000C0000082E00E94D40161E087E00E9402
:100B1000710260E083E991E00E948302D12CC12C34
:100B2000AA24A394B12C0FE110E048994EC0809103
:100B3000440190914501009729F001979093450158
:100B400080934401E0904401F09045019090400171
:100B500022E0E216F1040CF0AFC1F0924301E09202
:100B600042010E94CC016E2D892D0E94710260E02D
:100B700083E991E00E94830260E08FE00E947102AD
:100B800064E083E991E00E94830261E08AE0E81674
:100B9000F1040CF099C18EE00E94710290E080E0B7
:100BA0000E94890261E08FE00E94710280914401FD
:100BB000909145010E9489029FEFE9E6F8E191508A
:100BC000E040F040E1F700C00000499953C0809137
:100BD0004601909147018F31910529F0019690933C
:100BE000470180934601E0904601F0904701C8011B
:100BF0008E199F0907970CF06CC1470122E1821AF8
:100C0000910890924101809240010E94CC01609134
:100C10004201882D0E94710260E083E991E00E9408
:100C2000830260E08FE00E94710266E083E991E058
:100C30000E94830261E08EE09AE0E916F1040CF074
:100C400057C10E94710290E080E00E94890261E039
:100C50008FE00E94710280914601909147010E94AD
:100C60008902EFEFF9E628E1E150F0402040E1F79A
:100C700000C000004A994DC0809146019091470103
:100C8000009729F001979093470180934601E090E7
:100C90004601F090470188E0E816F1040CF02CC101
:100CA000F0924101E09240010E94CC01609142012A
:100CB0008E2D0E94710260E083E991E00E94830220
:100CC00060E08FE00E94710267E083E991E00E949A
:100CD000830261E08EE0EAE0EE16F1040CF020C140
:100CE0000E94710290E080E00E94890261E08FE042
:100CF0000E94710280914601909147010E948902F1
:100D0000FFEF29E688E1F15020408040E1F700C084
:100D100000004B994DC080914401909145018F3165
:100D2000910529F001969093450180934401E0904C
:100D30004401F090450192E0E916F10484F4F09248
:100D40004301E09242010E94CC016E2D809140014E
:100D50000E94710260E083E991E00E94830260E0FA
:100D60008FE00E94710265E083E991E00E948302B6
:100D700061E08EE0EAE0EE16F1040CF0D5C00E94CE
:100D8000710290E080E00E94890261E08FE00E94A1
:100D9000710280914401909145010E948902FFEF08
:100DA00029E688E1F15020408040E1F700C00000D2
:100DB00020914601309147018091880190918901ED
:100DC0002817390761F46091440170914501409101
:100DD0008601509187016417750709F4A9C04091F5
:100DE0008401509185012417350761F46091440115
:100DF00070914501409182015091830164177507FC
:100E000009F4DBC04091800150918101241735071E
:100E100061F4609144017091450140917E015091CF
:100E20007F016417750709F4C8C040917C01509197
:100E30007D012417350761F440914401509145012B
:100E400020917A0130917B014217530709F4B5C014
:100E5000609186017091870128E545E050E00E948D
:100E60000C03609182017091830121E044E050E025
:100E700080918401909185010E940C0360917E0114
:100E800070917F0122E043E050E0809180019091D9
:100E900081010E940C0360917A0170917B0123E033
:100EA00042E050E080917C0190917D010E940C0312
:100EB0009FEFC91AD90A39CEB0924301A0924201DC
:100EC0000E94CC0161E050CE8EE00E947102C70109
:100ED00071CE88E0E816F1040CF0A3CEF092410147
:100EE000E09240010E94CC01609142018E2D92CE91
:100EF0000E947102C701B3CEC8018E199F090797DE
:100F00000CF0DECE470192E1891A910890924101DE
:100F1000809240010E94CC0160914201882DC9CE8F
:100F20000E947102C701EACE0E947102C70135CF4B
:100F300001E010E0C6016CE370E00E94090B9F9392
:100F40008F937F936F938BE591E09F938F93FE0137
:100F500031967F01FF93EF930E94370B0E94CC01E3
:100F600060E084E00E9471020FB6F894DEBF0FBE0D
:100F7000CDBF87E691E0012B11F480E791E00E945C
:100F8000230161E080E00E947102C7010E942301F9
:100F900090E080E064960FB6F894DEBF0FBECDBF40
:100FA000DF91CF911F910F91FF90EF90DF90CF9045
:100FB000BF90AF909F908F90089510E000E0BACF5F
:100FC0008F929F92AF92BF92CF92DF92EF92FF9259
:100FD000CF93DF93EC01688179818A819B816115D0
:100FE00071058105910521F464E279ED8BE597E0C7
:100FF0002DE133EF41E050E00E94AD0849015A0174
:101000009B01AC01A7EAB1E40E94CC086B017C0112
:10101000ACEEB4EFA50194010E94DA08C60ED71E0B
:10102000E81EF91EF7FE06C081E0C81AD108E108E3
:1010300080E8F80AC882D982EA82FB82C701B60139
:101040009F77DF91CF91FF90EF90DF90CF90BF908F
:10105000AF909F908F9008958F929F92AF92BF9282
:10106000CF92DF92EF92FF92609148017091490117
:1010700080914A0190914B0161157105810591059F
:1010800021F464E279ED8BE597E02DE133EF41E067
:1010900050E00E94AD0849015A019B01AC01A7EA4A
:1010A000B1E40E94CC086B017C01ACEEB4EFA50169
:1010B00094010E94DA08C60ED71EE81EF91EF7FE3C
:1010C00006C081E0C81AD108E10880E8F80AC09299
:1010D0004801D0924901E0924A01F0924B01C701C8
:1010E000B6019F77FF90EF90DF90CF90BF90AF90C9
:1010F0009F908F9008956093480170934901809369
:101100004A0190934B010895A8E1B0E042E050E01D
:101110000C9491080E949F08272F0C94A008DC01D2
:10112000CB01FC01F999FECF06C0F2BDE1BDF89AF2
:10113000319600B40D9241505040B8F70895262FD3
:10114000F999FECF1FBA92BD81BD20BD0FB6F894AC
:10115000FA9AF99A0FBE01960895052E97FB1EF490
:1011600000940E94C40857FD07D00E94DF0807FCC6
:1011700003D04EF40C94C4085095409530952195B9
:101180003F4F4F4F5F4F08959095809570956195B3
:101190007F4F8F4F9F4F08950E940109A59F900D8B
:1011A000B49F900DA49F800D911D11240895B7FF49
:1011B0000C94CC080E94CC08821B930B0895A1E2EA
:1011C0001A2EAA1BBB1BFD010DC0AA1FBB1FEE1FC1
:1011D000FF1FA217B307E407F50720F0A21BB30B0C
:1011E000E40BF50B661F771F881F991F1A9469F788
:1011F00060957095809590959B01AC01BD01CF01E4
:101200000895A29FB001B39FC001A39F700D811DDF
:101210001124911DB29F700D811D1124911D0895FF
:101220005058BB27AA270E9428090C94070A0E943D
:10123000F90938F00E94000A20F039F49F3F19F4B0
:1012400026F40C94F6090EF4E095E7FB0C94F009F3
:10125000E92F0E94180A58F3BA1762077307840728
:10126000950720F079F4A6F50C943A0A0EF4E0956F
:101270000B2EBA2FA02D0B01B90190010C01CA0150
:10128000A0011124FF27591B99F0593F50F4503EFB
:1012900068F11A16F040A22F232F342F4427585FED
:1012A000F3CF469537952795A795F0405395C9F705
:1012B0007EF41F16BA0B620B730B840BBAF09150BD
:1012C000A1F0FF0FBB1F661F771F881FC2F70EC05C
:1012D000BA0F621F731F841F48F48795779567952F
:1012E000B795F7959E3F08F0B0CF9395880F08F01B
:1012F0009927EE0F9795879508950E948409689421
:10130000B1110C943B0A08950E94200A88F09F575F
:1013100098F0B92F9927B751B0F0E1F0660F771F19
:10132000881F991F1AF0BA95C9F714C0B13091F00F
:101330000E943A0AB1E008950C943A0A672F782F78
:101340008827B85F39F0B93FCCF3869577956795D4
:10135000B395D9F73EF490958095709561957F4F40
:101360008F4F9F4F0895E89409C097FB3EF49095E6
:101370008095709561957F4F8F4F9F4F9923A9F06E
:10138000F92F96E9BB279395F695879577956795FD
:10139000B795F111F8CFFAF4BB0F11F460FF1BC041
:1013A0006F5F7F4F8F4F9F4F16C0882311F096E9D4
:1013B00011C0772321F09EE8872F762F05C0662382
:1013C00071F096E8862F70E060E02AF09A95660F3B
:1013D000771F881FDAF7880F9695879597F90895F4
:1013E00097F99F6780E870E060E008959FEF80ECD8
:1013F000089500240A94161617061806090608957B
:1014000000240A9412161306140605060895092EE0
:101410000394000C11F4882352F0BB0F40F4BF2B4F
:1014200011F460FF04C06F5F7F4F8F4F9F4F08958F
:1014300057FD9058440F551F59F05F3F71F0479585
:10144000880F97FB991F61F09F3F79F0879508956A
:10145000121613061406551FF2CF4695F1DF08C089
:10146000161617061806991FF1CF869571056105A6
:1014700008940895E894BB2766277727CB0197F94E
:1014800008950E94540A0C94070A0E94F90938F042
:101490000E94000A20F0952311F00C94F0090C949E
:1014A000F60911240C943B0A0E94180A70F3959FC8
:1014B000C1F3950F50E0551F629FF001729FBB274B
:1014C000F00DB11D639FAA27F00DB11DAA1F649FE7
:1014D0006627B00DA11D661F829F2227B00DA11D9A
:1014E000621F739FB00DA11D621F839FA00D611D20
:1014F000221F749F3327A00D611D231F849F600D41
:10150000211D822F762F6A2F11249F5750409AF069
:10151000F1F088234AF0EE0FFF1FBB1F661F771FF5
:10152000881F91505040A9F79E3F510580F00C94C0
:10153000F0090C943B0A5F3FE4F3983ED4F38695A0
:1015400077956795B795F795E7959F5FC1F7FE2B60
:10155000880F911D9695879597F9089519F416F4BB
:101560000C94F6090C94F40A0E94200AB8F399230B
:10157000C9F3B6F39F57550B87FF0E94020B002457
:10158000A0E640EA900180585695979528F4805C33
:10159000660F771F881F20F026173707480730F49B
:1015A000621B730B840B202931294A2BA6951794B3
:1015B0000794202531254A2758F7660F771F881F83
:1015C00020F026173707480730F4620B730B840BA3
:1015D000200D311D411DA09581F7B901842F91582F
:1015E000880F9695879508959F3F31F0915020F48C
:1015F000879577956795B795880F911D96958795EF
:1016000097F9089591505040660F771F881FD2F7C1
:10161000089597FB072E16F4009407D077FD09D0A4
:101620000E941D0B07FC05D03EF4909581959F4FBD
:101630000895709561957F4F0895AA1BBB1B51E1DA
:1016400007C0AA1FBB1FA617B70710F0A61BB70B32
:10165000881F991F5A95A9F780959095BC01CD01D7
:101660000895EE0FFF1F0590F491E02D0994AEE070
:10167000B0E0EDE3FBE00C94E60D0D891E8986E0F9
:101680008C831A8309838FEF9FE79E838D83AE013E
:10169000475E5F4F6F89788DCE0101960E945A0B8D
:1016A0002F813885020F131FF80110822E96E4E077
:1016B0000C94020EABE0B0E0E0E6FBE00C94D80D39
:1016C0007C013B018A01FC0117821682838181FF24
:1016D000C8C1CE0101965C01F7019381F30193FD2E
:1016E000859193FF81913F01882309F453C185328D
:1016F00039F493FD859193FF81913F01853229F45F
:10170000B70190E00E944A0DE7CF912C212C312C9B
:10171000FFE1F31538F08B3211F190F4803209F1CA
:10172000833229F137FC3CC020ED280F2A3050F5D8
:1017300036FE20C08AE0989E200D1124922E06C00D
:101740008D3291F0803371F7689430F8F30193FD96
:10175000859193FF81913F018111DACF21C0689477
:1017600031F8689432F8F2CF689433F8EFCF689488
:1017700034F8ECCFEAE02E9E200D1124222E68943E
:1017800035F8E4CF8E3229F436FC04C1689436F87B
:10179000DDCF8C3619F4689437F8D8CF8836B1F29B
:1017A000982F9F7D95549330E0F08336A1F18337D5
:1017B000C1F1833509F063C02801F2E04F0E511CDE
:1017C000F801C080D180692D70E036FC02C06FEF57
:1017D0007FEFC6010E94340D4C01689437F88201F6
:1017E0000AC00C5F1F4FFFE3F98388248394912C78
:1017F0006501E89437F833FE2DC0522C8114910412
:1018000071F5552009F468CFB70180E290E00E949D
:101810004A0D5A94F6CFF801808189830E5F1F4FDD
:10182000E4CF2801F2E04F0E511CF801C080D180B6
:10183000692D70E036FC02C06FEF7FEFC6010E9499
:101840003F0D4C018201D5CFB70180E290E00E94AC
:101850004A0D2A942814190409F0B0F7CECFF601E6
:1018600037FC859137FE81916F01B70190E00E94AE
:101870004A0D51105A94F1E08F1A9108BFCF843667
:1018800019F0893609F077C0F80137FE6BC0608126
:101890007181828193810C5F1F4FF32DFF763F2E64
:1018A00097FF09C090958095709561957F4F8F4FF8
:1018B0009F4F689437F82AE030E0A5010E947A0D26
:1018C000C82ECA188C2C432C36FE0CC0E89440F865
:1018D000C91440F434FE05C032FC03C0F32DFE7E73
:1018E0004F2E892C44FE95C0FE01EC0DF11D808128
:1018F000803309F087C0242D297E422E842D8870E4
:10190000582E43FC95C040FE8FC09C2C821418F4C6
:101910002C0C922C981844FE91C0B70180E390E003
:101920000E944A0D42FE09C088E790E041FE02C0D5
:1019300088E590E0B7010E944A0DC91408F48AC0F6
:10194000CA94D12C9FEFC91AD90ACA0CDB1CF60124
:1019500082916F01B70190E00E944A0DAC14BD0462
:10196000B1F74FCF60817181072E000C880B990B66
:101970000E5F1F4F92CFD32CE894D4F82AE030E0CA
:10198000853739F1232D297FD22E8F3601F148F486
:101990008835A9F0F701868197812B96E2E10C94B6
:1019A000F40D803749F08837A9F7D4FE02C0689457
:1019B000D2F820E130E00DC06894D4F8F6CF34FEC0
:1019C00003C0822F8660D82E20E132E002C028E0DA
:1019D00030E0F801D7FE0FC0608171818281938170
:1019E0000C5F1F4FA5010E947A0DC82ECA183D2C0E
:1019F000E89437F867CF6081718190E080E00E5FF6
:101A00001F4FF0CF42FC02C0839478CF839483941D
:101A100075CF842D867809F471CFF6CFB70180E2B7
:101A200090E00E944A0D83948214C0F3512C73CF2E
:101A3000522C5818821408F46ECFF8CF842D867873
:101A400009F47BCF8BE241FE80E247FC8DE2B701D7
:101A500090E071CFB70180E390E00E944A0D9A9424
:101A60006CCF8FEF9FEF99CFFC01059061507040D4
:101A70000110D8F7809590958E0F9F1F0895FC0157
:101A80006150704001900110D8F7809590958E0FAD
:101A90009F1F08950F931F93CF93DF93182F092F44
:101AA000EB018B8181FD09C01FEF0FEF812F902F7C
:101AB000DF91CF911F910F91089582FF14C02E8165
:101AC0003F818C819D81281739073CF4E881F98199
:101AD000CF0101969983888310838E819F8101961F
:101AE0009F838E83E3CFE885F985812F0995892B24
:101AF000A1F3DACFFA01AA27283051F1203181F180
:101B0000E8946F936E7F6E5F7F4F8F4F9F4FAF4F05
:101B1000B1E03ED0B4E03CD0670F781F891F9A1F18
:101B2000A11D680F791F8A1F911DA11D6A0F711DCC
:101B3000811D911DA11D20D009F468943F912AE0D8
:101B4000269F11243019305D3193DEF6CF010895C0
:101B5000462F4770405D4193B3E00FD0C9F7F6CFF1
:101B6000462F4F70405D4A3318F0495D31FD4052B9
:101B7000419302D0A9F7EACFB4E0A695979587954F
:101B800077956795BA95C9F700976105710508952E
:101B90009B01AC010A2E06945795479537952795DA
:101BA000BA95C9F7620F731F841F951FA01D089572
:101BB0002F923F924F925F926F927F928F929F925D
:101BC000AF92BF92CF92DF92EF92FF920F931F934B
:101BD000CF93DF93CDB7DEB7CA1BDB0B0FB6F894FC
:101BE000DEBF0FBECDBF09942A88398848885F843C
:101BF0006E847D848C849B84AA84B984C884DF80AD
:101C0000EE80FD800C811B81AA81B981CE0FD11D90
:101C10000FB6F894DEBF0FBECDBFED010895F89466
:021C2000FFCFF4
:101C22000E0E150E040E11110E171E1F181F1A127A
:101C32001F1F151F041B1B1B0000000A000E1100B2
:101C4200040E15040404040004040404150E040024
:101C52000804021F020408000204081F080402000C
:101C6200070001000F000F0001000000000000004B
:101C72008302F20020011F010D0A0054696D653ACA
:101C82002025643A256400594F5520574F4E2100B4
:0A1C9200594F55204C4F53542100C8
:00000001FF
