:100000000C945D000C9485000C9485000C94850084
:100010000C9485000C9485000C9485000C9485004C
:100020000C9485000C9485000C9485000C9485003C
:100030000C9485000C9485000C9485000C9485002C
:100040000C940C030C9485000C9485000C94850092
:100050000C9485000C9485000C9485000C9485000C
:100060000C9485000C94850000000008000201003B
:100070000003040700000000000000000000000072
:10008000250028002B0000000000240027002A0083
:10009000040404040404040402020202020203032E
:1000A0000303030301020408102040800102040836
:1000B0001020010204081020560311241FBECFEFA8
:1000C000D8E0DEBFCDBF11E0A0E0B1E0EAEEF3E1A1
:1000D00002C005900D92AE36B107D9F721E0AEE629
:1000E000B1E001C01D92A13AB207E1F710E0CDE501
:1000F000D0E004C02197FE010E94ED09CC35D10764
:10010000C9F70E9474030C94F3090C94000090E06A
:10011000FC01EC55FF4F249180579F4FFC018491C7
:10012000882399F090E0880F991FFC01EA57FF4F50
:10013000A591B491FC01E458FF4F859194918FB73C
:10014000F894EC91E22BEC938FBF089590E0FC01C2
:10015000E859FF4F2491FC01EC55FF4F3491FC010D
:10016000E057FF4FE491EE23C9F0222339F023300A
:1001700001F1A8F4213019F1223029F1F0E0EE0F5D
:10018000FF1FE458FF4FA591B4918FB7F894EC91FD
:10019000611126C030953E233C938FBF08952730D0
:1001A000A9F02830C9F0243049F7809180008F7D74
:1001B00003C0809180008F7780938000DFCF84B56B
:1001C0008F7784BDDBCF84B58F7DFBCF8091B0006E
:1001D0008F778093B000D2CF8091B0008F7DF9CF20
:1001E0003E2BDACFAF92BF92CF92DF92EF92FF9287
:1001F0000F931F93CF93DF936C017B018B01040F4F
:10020000151FEB015E01AE18BF08C017D10759F0EA
:100210006991D601ED91FC910190F081E02DC6012C
:100220000995892B79F7C501DF91CF911F910F9126
:10023000FF90EF90DF90CF90BF90AF90089508951A
:1002400090E080E00895FC0101900020E9F73197EB
:10025000AF01481B590BBC0189E891E00C94F200F6
:10026000CF93DF93EC0160E08E810E94A60061E0F5
:100270008E810E94A60060E08E810E94A6008BE81D
:1002800091E00197F1F7DF91CF910895CF92DF923E
:10029000EF92FF920F931F93CF93DF936C017C013A
:1002A00087E0E80EF11CD0E0C0E0062F10E0B801B6
:1002B0000C2E02C0759567950A94E2F76170F701FC
:1002C00081917F010E94A6002196C430D10579F763
:1002D000C601DF91CF911F910F91FF90EF90DF90BA
:1002E000CF900C943001CF92DF92EF92FF920F9358
:1002F0001F93CF93DF93EC01F62E642F8C810E9425
:10030000A6008D818F3F19F060E00E94A6000F2D9E
:1003100010E08F8584FF25C06E0187E0C80ED11CD8
:10032000F12CE12CB8010E2C02C0759567950A944A
:10033000E2F76170F60181916F010E94A600FFEF64
:10034000EF1AFF0A88E0E816F10461F7CE01DF91A9
:10035000CF911F910F91FF90EF90DF90CF900C9471
:100360003001B80184E0759567958A95E1F7CE0173
:100370000E9446016F2DCE01DF91CF911F910F9109
:10038000FF90EF90DF90CF900C94460140E0682FF3
:1003900089E891E00C94730181E00E94C6018BE32F
:1003A0009FE10197F1F70895CF93DF93823029F40D
:1003B0009091980198609093980180939C0110927D
:1003C0009D0180E480939E0180E180939F0180E500
:1003D0008093A00180918D010E94870080918E0101
:1003E0008F3F11F00E94870080918F010E9487004B
:1003F000C9E8D1E09E01295831408091980184FDDF
:100400000AC084E090E02196281739073CF48E81D9
:100410000E948700EFCF88E090E0F5CF8BE39DE06E
:100420000197F1F760E080918D010E94A60060E0E5
:1004300080918F010E94A60080918E018F3F19F05C
:1004400060E00E94A6008091980184FD34C063E0C2
:1004500089E891E00E944601CBE4D6E4CE01019701
:10046000F1F763E089E891E00E9446012197F1F7F6
:1004700063E089E891E00E94460183E592E00197FC
:10048000F1F762E089E891E00E94460180919801CD
:1004900080620E94C60184E0809399018CE00E94F2
:1004A000C6010E94CC0182E080939A0186E0DF9130
:1004B000CF910C94C60180620E94C6018BE496E441
:1004C0000197F1F78091980180620E94C60183E54F
:1004D00092E00197F1F78091980180620E94C60135
:1004E000D5CF643008F063E090919C01691710F05B
:1004F0006FEF690FE62FF0E0E757FE4F9489890F01
:1005000080680C94C60141E00E94730181E090E094
:1005100008958F929F92AF92BF92CF92DF92EF9207
:10052000FF92CF93DF93CDB7DEB7A1970FB6F894C4
:10053000DEBF0FBECDBF6C01990FEE08FF08F7FEBE
:1005400047C041E06DE289E891E00E9473012227F3
:100550003327A9012C193D094E095F0919A2CE01C3
:1005600081967C019AE0892E912CA12CB12CCA0194
:10057000B901A50194010E94C307605DF701629370
:100580007F01211531054105510589F790E080E093
:10059000309719F0CF010E9423017C01FFEFEF1A81
:1005A000FF0A88E591E00E9423018E0D9F1DA19610
:1005B0000FB6F894DEBF0FBECDBFDF91CF91FF9095
:1005C000EF90DF90CF90BF90AF909F908F90089565
:1005D000A701960119A2CE0181967C018AE0882E9E
:1005E000912CA12CB12CCA01B901A50194010E9442
:1005F000C307605DF70162937F0121153105410555
:10060000510589F7309729F0CF010E9423017C0121
:10061000C8CFF12CE12CC5CF1F920F920FB60F92CD
:1006200011242F933F938F939F93AF93BF93809108
:10063000850190918601A0918701B0918801309148
:10064000840123E0230F2D3758F50196A11DB11D1C
:10065000209384018093850190938601A093870164
:10066000B09388018091800190918101A0918201D5
:10067000B09183010196A11DB11D809380019093DB
:100680008101A0938201B0938301BF91AF919F91AB
:100690008F913F912F910F900FBE0F901F90189543
:1006A00026E8230F0296A11DB11DD2CFE9E8F1E0A3
:1006B0001382128280E591E09183808388E08483B5
:1006C0008FEF858389E0868384E0878385E0808758
:1006D00086E0818787E082871386148615861686D2
:1006E000178681E00C94D4012F923F925F926F9213
:1006F0007F928F929F92AF92BF92CF92DF92EF92B2
:10070000FF920F931F93CF93DF9384B18C6384B9CF
:1007100085B18C6385B98AB18AB980E480937C0005
:1007200080917A00806480937A0080917A0086FDBF
:10073000FCCF8091780060917900762F682F072E8A
:10074000000C880B990B611571058105910511F05D
:100750000E94880700E011E0C0E08C2F80640E94B6
:10076000C601780128E0E20EF11CF80161918F01C9
:1007700089E891E00E948302E016F106B1F7C85FB4
:10078000C03459F7FFEF21EE84E0F1502040804063
:10079000E1F700C000000E94390723E3C22ED12CEC
:1007A000E12CF12CA70196010E9491077093790129
:1007B000609378010E943907A70196010E94910772
:1007C00070937701609376010E943907A701960123
:1007D0000E94910770937501609374010E9439071C
:1007E000A70196010E9491077093730160937201B3
:1007F0000E943907A70196010E9491077093710129
:10080000609370010E943907A70196010E94910729
:1008100070936F0160936E0181E090E090937F018F
:1008200080937E0110927D0110927C019FEFE1EE9A
:10083000F4E09150E040F040E1F700C0000082E0B9
:100840000E94D40161E087E00E94710260E089E8C3
:1008500091E00E94830233E3632E712C40E2342E38
:1008600048994CC08091440190914501009729F02E
:1008700001979093450180934401C0914401D09128
:10088000450110914001C230D1050CF067C1D093F1
:100890004301C09342010E94CC016C2F812F0E9422
:1008A000710260E089E891E00E94830260E08FE0DD
:1008B0000E94710264E089E891E00E94830261E095
:1008C0008EE0CA30D1050CF053C10E94710290E055
:1008D00080E00E94890261E08FE00E9471028091B5
:1008E0004401909145010E9489029FEFE1EEF4E0FE
:1008F0009150E040F040E1F700C00000499951C03C
:1009000080914601909147018333910529F001962A
:100910009093470180934601C0914601D0914701D1
:10092000C3018C1B9D0B07970CF026C18E0106524C
:10093000110910934101009340010E94CC01609184
:100940004201802F0E94710260E089E891E00E94DC
:10095000830260E08FE00E94710266E089E891E026
:100960000E94830261E08EE0CA30D1050CF012C112
:100970000E94710290E080E00E94890261E08FE0B5
:100980000E94710280914601909147010E94890264
:100990002FEF81EE94E0215080409040E1F700C0BD
:1009A00000004A994BC08091460190914701009701
:1009B00029F001979093470180934601C091460129
:1009C000D0914701C830D1050CF0E8C0D093410167
:1009D000C09340010E94CC01609142018C2F0E9483
:1009E000710260E089E891E00E94830260E08FE09C
:1009F0000E94710267E089E891E00E94830261E051
:100A00008EE0CA30D1050CF0DCC00E94710290E08B
:100A100080E00E94890261E08FE00E947102809173
:100A20004601909147010E948902EFEFF1EE24E028
:100A3000E150F0402040E1F700C000004B994BC06E
:100A400080914401909145018333910529F00196ED
:100A50009093450180934401C0914401D091450198
:100A6000C230D10584F4D0934301C09342010E9467
:100A7000CC016C2F809140010E94710260E089E8F6
:100A800091E00E94830260E08FE00E94710265E0C5
:100A900089E891E00E94830261E08EE0CA30D105CE
:100AA0000CF093C00E94710290E080E00E948902E5
:100AB00061E08FE00E9471028091440190914501B4
:100AC0000E9489028FEF91EEE4E081509040E04077
:100AD000E1F700C00000E0904601F090470100916E
:100AE0007E0110917F018090440190904501E016B5
:100AF000F10609F06EC080917C0190917D0188150E
:100B0000990509F066C081E090E090937B018093A5
:100B10007A010E94CC0160E084E00E947102809121
:100B20007A0190917B01892B09F448C18BE591E012
:100B30000E94230190E080E0DF91CF911F910F91FF
:100B4000FF90EF90DF90CF90BF90AF909F908F90ED
:100B50007F906F905F903F902F90089581E090E09C
:100B600090934301809342010E94CC0161E096CEB4
:100B70000E947102CE01B7CEC830D1050CF0E9CE8B
:100B8000D0934101C09340010E94CC016091420189
:100B90008C2FD8CE0E947102CE01F8CEC3018C1BDF
:100BA0009D0B07970CF022CF8E010652110910936E
:100BB0004101009340010E94CC0160914201802FCD
:100BC0000ECF0E947102CE012ECF0E947102CE0183
:100BD00077CF8091780190917901E816F90639F480
:100BE000809176019091770188159905E1F08091C7
:100BF000740190917501E816F90639F4809172013B
:100C0000909173018815990571F080917001909110
:100C10007101E816F90661F480916E0190916F01FF
:100C20008815990529F410927B0110927A0171CFF1
:100C3000C0917C01D0917D016701C01AD10A540195
:100C4000AC1ABD0A5090420120904001E016F10616
:100C50007CF18C169D060CF4B8C0F8E0CF16D104D8
:100C60000CF0AFC022E0A216B1040CF0AAC00E94A2
:100C7000CC01652D822D0E94710260E089E891E02F
:100C80000E94830287E090E08C199D0908171907DC
:100C900064F187E0800F6C2FC230D1058CF16F5F5B
:100CA00068190830110554F56C2F6F5F681921C061
:100CB0008C169D060CF489C0C8018E199F090797F0
:100CC0000CF083C082E0A816B1040CF07EC00E9434
:100CD000CC01652D822D0E94710260E089E891E0CF
:100CE0000E9483020830110534F4C230D105E4F6C5
:100CF0006C2F802F06C06C2F6F5F681987E0800F04
:100D00008E190E94710268E589E891E00E948302D1
:100D1000B601DD0C880B990B0E9499086B017C01D0
:100D2000B501BB0C880B990B0E9499084B015C0123
:100D3000A7019601C701B6010E9425096B017C013C
:100D4000A5019401C501B4010E9425099B01AC01D4
:100D5000C701B6010E94F5070E9498090E94610828
:100D60006B3071056CF485B1832585B99FEFE1EE99
:100D7000F4E09150E040F040E1F700C0000070CD99
:100D8000603171055CF485B1832585B92FEF83EC63
:100D900099E0215080409040E1F7EFCF6531710537
:100DA0005CF485B1832585B9EFEFF5EA2EE0E150DB
:100DB000F0402040E1F7E1CF2D9A52CD84E691E05A
:100DC000B7CE0E151F050CF077CF0E94CC01652D14
:100DD000822D0E94710260E097CF8F929F92AF9216
:100DE000BF92CF92DF92EF92FF92CF93DF93EC010D
:100DF000688179818A819B816115710581059105E1
:100E000021F464E279ED8BE597E02DE133EF41E0E9
:100E100050E00E94910749015A019B01AC01A7EAE9
:100E2000B1E40E94B0076B017C01ACEEB4EFA50108
:100E300094010E94BE07C60ED71EE81EF91EF7FEDB
:100E400006C081E0C81AD108E10880E8F80AC88223
:100E5000D982EA82FB82C701B6019F77DF91CF91E9
:100E6000FF90EF90DF90CF90BF90AF909F908F90CA
:100E700008958F929F92AF92BF92CF92DF92EF929E
:100E8000FF92609148017091490180914A019091CF
:100E90004B01611571058105910521F464E279ED3D
:100EA0008BE597E02DE133EF41E050E00E949107A0
:100EB00049015A019B01AC01A7EAB1E40E94B007C5
:100EC0006B017C01ACEEB4EFA50194010E94BE075A
:100ED000C60ED71EE81EF91EF7FE06C081E0C81A2E
:100EE000D108E10880E8F80AC0924801D09249018F
:100EF000E0924A01F0924B01C701B6019F77FF9043
:100F0000EF90DF90CF90BF90AF909F908F9008951B
:100F1000609348017093490180934A0190934B017B
:100F20000895052E97FB1EF400940E94A80757FD14
:100F300007D00E94C30707FC03D04EF40C94A80707
:100F400050954095309521953F4F4F4F5F4F0895F5
:100F500090958095709561957F4F8F4F9F4F089525
:100F60000E94E507A59F900DB49F900DA49F800D52
:100F7000911D11240895B7FF0C94B0070E94B0078B
:100F8000821B930B0895A1E21A2EAA1BBB1BFD0125
:100F90000DC0AA1FBB1FEE1FFF1FA217B307E40758
:100FA000F50720F0A21BB30BE40BF50B661F771FB0
:100FB000881F991F1A9469F7609570958095909590
:100FC0009B01AC01BD01CF010895A29FB001B39F69
:100FD000C001A39F700D811D1124911DB29F700D42
:100FE000811D1124911D08955058BB27AA270E94E6
:100FF0000C080C94EB080E94DD0838F00E94E4080D
:1010000020F039F49F3F19F426F40C94DA080EF41A
:10101000E095E7FB0C94D408E92F0E94FC0858F3F4
:10102000BA17620773078407950720F079F4A6F5CD
:101030000C941E090EF4E0950B2EBA2FA02D0B0177
:10104000B90190010C01CA01A0011124FF27591B0D
:1010500099F0593F50F4503E68F11A16F040A22F13
:10106000232F342F4427585FF3CF46953795279584
:10107000A795F0405395C9F77EF41F16BA0B620B83
:10108000730B840BBAF09150A1F0FF0FBB1F661FCA
:10109000771F881FC2F70EC0BA0F621F731F841F0D
:1010A00048F4879577956795B795F7959E3F08F033
:1010B000B0CF9395880F08F09927EE0F97958795F5
:1010C00008950E9468086894B1110C941F0908954E
:1010D0000E94040988F09F5798F0B92F9927B751BB
:1010E000B0F0E1F0660F771F881F991F1AF0BA95CC
:1010F000C9F714C0B13091F00E941E09B1E0089503
:101100000C941E09672F782F8827B85F39F0B93FF4
:10111000CCF3869577956795B395D9F73EF490957E
:101120008095709561957F4F8F4F9F4F0895E894FC
:1011300009C097FB3EF490958095709561957F4F1F
:101140008F4F9F4F9923A9F0F92F96E9BB279395CD
:10115000F695879577956795B795F111F8CFFAF4DD
:10116000BB0F11F460FF1BC06F5F7F4F8F4F9F4F0E
:1011700016C0882311F096E911C0772321F09EE86C
:10118000872F762F05C0662371F096E8862F70E0D2
:1011900060E02AF09A95660F771F881FDAF7880FAC
:1011A0009695879597F9089597F99F6780E870E07D
:1011B00060E008959FEF80EC089500240A941616CD
:1011C000170618060906089500240A941216130635
:1011D000140605060895092E0394000C11F48823C3
:1011E00052F0BB0F40F4BF2B11F460FF04C06F5FDF
:1011F0007F4F8F4F9F4F089557FD9058440F551FB5
:1012000059F05F3F71F04795880F97FB991F61F088
:101210009F3F79F087950895121613061406551FFF
:10122000F2CF4695F1DF08C0161617061806991F6B
:10123000F1CF86957105610508940895E894BB2760
:1012400066277727CB0197F908950E9438090C94F7
:10125000EB080E94DD0838F00E94E40820F0952396
:1012600011F00C94D4080C94DA0811240C941F0982
:101270000E94FC0870F3959FC1F3950F50E0551F35
:10128000629FF001729FBB27F00DB11D639FAA27DB
:10129000F00DB11DAA1F649F6627B00DA11D661F2A
:1012A000829F2227B00DA11D621F739FB00DA11D4B
:1012B000621F839FA00D611D221F749F3327A00D05
:1012C000611D231F849F600D211D822F762F6A2FA1
:1012D00011249F5750409AF0F1F088234AF0EE0F06
:1012E000FF1FBB1F661F771F881F91505040A9F733
:1012F0009E3F510580F00C94D4080C941F095F3F69
:10130000E4F3983ED4F3869577956795B795F7956E
:10131000E7959F5FC1F7FE2B880F911D96958795E6
:1013200097F9089519F416F40C94DA080C94D80976
:101330000E940409B8F39923C9F3B6F39F57550BDC
:1013400087FF0E94E6090024A0E640EA9001805849
:101350005695979528F4805C660F771F881F20F0BC
:1013600026173707480730F4621B730B840B2029BC
:1013700031294A2BA69517940794202531254A2711
:1013800058F7660F771F881F20F026173707480782
:1013900030F4620B730B840B200D311D411DA095A1
:1013A00081F7B901842F9158880F969587950895F4
:1013B0009F3F31F0915020F4879577956795B795C9
:1013C000880F911D9695879597F9089591505040F3
:1013D000660F771F881FD2F70895EE0FFF1F059045
:0A13E000F491E02D0994F894FFCF7A
:1013EA000E0E150E040E11110E171E1F181F1A12BB
:1013FA001F1F151F041B1B1B0000000A000E1100F3
:10140A00040E15040404040004040404150E040064
:10141A000804021F020408000204081F080402004C
:10142A000700010019001900010000000000000077
:10143A008302F20020011F010D0A00594F5520575F
:0E144A004F4E2100594F55204C4F5354210056
:00000001FF
