:100000000C945D000C9485000C9485000C94850084
:100010000C9485000C9485000C9485000C9485004C
:100020000C9485000C9485000C9485000C9485003C
:100030000C9485000C9485000C9485000C9485002C
:100040000C940C030C9485000C9485000C94850092
:100050000C9485000C9485000C9485000C9485000C
:100060000C9485000C94850000000008000201003B
:100070000003040700000000000000000000000072
:10008000250028002B0000000000240027002A0083
:10009000040404040404040402020202020203032E
:1000A0000303030301020408102040800102040836
:1000B0001020010204081020560311241FBECFEFA8
:1000C000D8E0DEBFCDBF11E0A0E0B1E0E8E9FDE09F
:1000D00002C005900D92AE35B107D9F721E0AEE52B
:1000E000B1E001C01D92A338B207E1F710E0CDE501
:1000F000D0E004C02197FE010E94C406CC35D10790
:10010000C9F70E9474030C94CA060C94000090E096
:10011000FC01EC55FF4F249180579F4FFC018491C7
:10012000882399F090E0880F991FFC01EA57FF4F50
:10013000A591B491FC01E458FF4F859194918FB73C
:10014000F894EC91E22BEC938FBF089590E0FC01C2
:10015000E859FF4F2491FC01EC55FF4F3491FC010D
:10016000E057FF4FE491EE23C9F0222339F023300A
:1001700001F1A8F4213019F1223029F1F0E0EE0F5D
:10018000FF1FE458FF4FA591B4918FB7F894EC91FD
:10019000611126C030953E233C938FBF08952730D0
:1001A000A9F02830C9F0243049F7809180008F7D74
:1001B00003C0809180008F7780938000DFCF84B56B
:1001C0008F7784BDDBCF84B58F7DFBCF8091B0006E
:1001D0008F778093B000D2CF8091B0008F7DF9CF20
:1001E0003E2BDACFAF92BF92CF92DF92EF92FF9287
:1001F0000F931F93CF93DF936C017B018B01040F4F
:10020000151FEB015E01AE18BF08C017D10759F0EA
:100210006991D601ED91FC910190F081E02DC6012C
:100220000995892B79F7C501DF91CF911F910F9126
:10023000FF90EF90DF90CF90BF90AF90089508951A
:1002400090E080E00895FC0101900020E9F73197EB
:10025000AF01481B590BBC018BE691E00C94F200F6
:10026000CF93DF93EC0160E08E810E94A60061E0F5
:100270008E810E94A60060E08E810E94A6008BE81D
:1002800091E00197F1F7DF91CF910895CF92DF923E
:10029000EF92FF920F931F93CF93DF936C017C013A
:1002A00087E0E80EF11CD0E0C0E0062F10E0B801B6
:1002B0000C2E02C0759567950A94E2F76170F701FC
:1002C00081917F010E94A6002196C430D10579F763
:1002D000C601DF91CF911F910F91FF90EF90DF90BA
:1002E000CF900C943001CF92DF92EF92FF920F9358
:1002F0001F93CF93DF93EC01F62E642F8C810E9425
:10030000A6008D818F3F19F060E00E94A6000F2D9E
:1003100010E08F8584FF25C06E0187E0C80ED11CD8
:10032000F12CE12CB8010E2C02C0759567950A944A
:10033000E2F76170F60181916F010E94A600FFEF64
:10034000EF1AFF0A88E0E816F10461F7CE01DF91A9
:10035000CF911F910F91FF90EF90DF90CF900C9471
:100360003001B80184E0759567958A95E1F7CE0173
:100370000E9446016F2DCE01DF91CF911F910F9109
:10038000FF90EF90DF90CF900C94460140E0682FF3
:100390008BE691E00C94730181E00E94C6018BE32F
:1003A0009FE10197F1F70895CF93DF93823029F40D
:1003B00090917A01986090937A0180937E011092D7
:1003C0007F0180E48093800180E18093810180E55A
:1003D0008093820180916F010E948700809170015B
:1003E0008F3F11F00E948700809171010E94870069
:1003F000CBE6D1E09E012B56314080917A0184FDFD
:100400000AC084E090E02196281739073CF48E81D9
:100410000E948700EFCF88E090E0F5CF8BE39DE06E
:100420000197F1F760E080916F010E94A60060E003
:10043000809171010E94A600809170018F3F19F098
:1004400060E00E94A60080917A0184FD34C063E0E0
:100450008BE691E00E944601CBE4D6E4CE01019701
:10046000F1F763E08BE691E00E9446012197F1F7F6
:1004700063E08BE691E00E94460183E592E00197FC
:10048000F1F762E08BE691E00E94460180917A01EB
:1004900080620E94C60184E080937B018CE00E9410
:1004A000C6010E94CC0182E080937C0186E0DF914E
:1004B000CF910C94C60180620E94C6018BE496E441
:1004C0000197F1F780917A0180620E94C60183E56D
:1004D00092E00197F1F780917A0180620E94C60153
:1004E000D5CF643008F063E090917E01691710F079
:1004F0006FEF690FE62FF0E0E559FE4F9489890F01
:1005000080680C94C60141E00E94730181E090E094
:1005100008958F929F92AF92BF92CF92DF92EF9207
:10052000FF92CF93DF93CDB7DEB7A1970FB6F894C4
:10053000DEBF0FBECDBF6C01990FEE08FF08F7FEBE
:1005400047C041E06DE28BE691E00E9473012227F3
:100550003327A9012C193D094E095F0919A2CE01C3
:1005600081967C019AE0892E912CA12CB12CCA0194
:10057000B901A50194010E949306605DF7016293A1
:100580007F01211531054105510589F790E080E093
:10059000309719F0CF010E9423017C01FFEFEF1A81
:1005A000FF0A88E591E00E9423018E0D9F1DA19610
:1005B0000FB6F894DEBF0FBECDBFDF91CF91FF9095
:1005C000EF90DF90CF90BF90AF909F908F90089565
:1005D000A701960119A2CE0181967C018AE0882E9E
:1005E000912CA12CB12CCA01B901A50194010E9442
:1005F0009306605DF70162937F0121153105410586
:10060000510589F7309729F0CF010E9423017C0121
:10061000C8CFF12CE12CC5CF1F920F920FB60F92CD
:1006200011242F933F938F939F93AF93BF93809108
:10063000670190916801A0916901B0916A013091C0
:10064000660123E0230F2D3758F50196A11DB11D3A
:10065000209366018093670190936801A0936901DC
:10066000B0936A018091620190916301A09164014D
:10067000B09165010196A11DB11D80936201909317
:100680006301A0936401B0936501BF91AF919F9105
:100690008F913F912F910F900FBE0F901F90189543
:1006A00026E8230F0296A11DB11DD2CFEBE6F1E0A3
:1006B0001382128280E591E09183808388E08483B5
:1006C0008FEF858389E0868384E0878385E0808758
:1006D00086E0818787E082871386148615861686D2
:1006E000178681E00C94D40184B18C6384B985B100
:1006F0008C6385B98AB18AB980E480937C0080914B
:100700007A00806480937A0080917A0086FDFCCF25
:100710008091780060917900762F682F072E000C69
:10072000880B990B611571058105910511F00E94E7
:10073000580600E011E0C0E08C2F80640E94C601E2
:10074000780128E0E20EF11CF80161918F018BE63F
:1007500091E00E948302E016F106B1F7C85FC03451
:1007600059F7FFEF21EE84E0F15020408040E1F79F
:1007700000C000000E9409060E9409060E940906A6
:100780000E9409060E9409060E9409068EE190E077
:10079000909361018093600190935F0180935E016B
:1007A0009FEFE1EEF4E09150E040F040E1F700C04F
:1007B000000082E00E94D40161E087E00E947102A3
:1007C00060E08BE691E00E948302CC24C394D12C9C
:1007D00093E3E92EF12C48994CC08091440190910B
:1007E0004501009729F001979093450180934401BA
:1007F000C0914401D091450110914001C230D10512
:100800000CF064C1D0934301C09342010E94CC011B
:100810006C2F812F0E94710260E08BE691E00E94B4
:10082000830260E08FE00E94710264E08BE691E059
:100830000E94830261E08EE0CA30D1050CF04EC107
:100840000E94710290E080E00E94890261E08FE0E6
:100850000E94710280914401909145010E94890299
:100860002FEF89E698E1215080409040E1F700C0E9
:100870000000499951C0809146019091470183330E
:10088000910529F001969093470180934601C0910C
:100890004601D0914701C7018C1B9D0B07970CF0B7
:1008A00021C18E01065211091093410100934001AC
:1008B0000E94CC0160914201802F0E94710260E091
:1008C0008BE691E00E94830260E08FE00E9471025B
:1008D00066E08BE691E00E94830261E08EE0CA3020
:1008E000D1050CF00DC10E94710290E080E00E94E1
:1008F000890261E08FE00E9471028091460190912F
:1009000047010E948902EFEFF9E628E1E150F0404B
:100910002040E1F700C000004A994BC08091460199
:1009200090914701009729F0019790934701809398
:100930004601C0914601D0914701C830D1050CF065
:10094000E3C0D0934101C09340010E94CC0160916B
:1009500042018C2F0E94710260E08BE691E00E94C0
:10096000830260E08FE00E94710267E08BE691E015
:100970000E94830261E08EE0CA30D1050CF0D7C03E
:100980000E94710290E080E00E94890261E08FE0A5
:100990000E94710280914601909147010E94890254
:1009A0008FEF99E6E8E181509040E040E1F700C028
:1009B00000004B994BC080914401909145018333D5
:1009C000910529F001969093450180934401C091CF
:1009D0004401D0914501C230D10584F4D093430144
:1009E000C09342010E94CC016C2F809140010E9473
:1009F000710260E08BE691E00E94830260E08FE08C
:100A00000E94710265E08BE691E00E94830261E042
:100A10008EE0CA30D1050CF08EC00E94710290E0C9
:100A200080E00E94890261E08FE00E947102809163
:100A30004401909145010E948902FFEF29E688E177
:100A4000F15020408040E1F700C00000A090460136
:100A5000B0904701009160011091610180904401C4
:100A600090904501C0915E01D0915F01609042017C
:100A700070904001A016B1060CF461C08C169D0662
:100A80000CF46BC0C501801B910B08970CF071C072
:100A9000C4018C1B9D0B02970CF06BC00E94CC0113
:100AA000662D872D0E94710260E08BE691E00E9426
:100AB00083026C2F6F5F681987E0800F8A190E948C
:100AC00071028BE591E00E94230185CED092430113
:100AD000C09242010E94CC0161E09BCE0E94710253
:100AE000CE01BCCEC830D1050CF0EECED093410182
:100AF000C09340010E94CC01609142018C2FDDCE59
:100B00000E947102CE01FDCEC7018C1B9D0B079781
:100B10000CF027CF8E01065211091093410100936A
:100B200040010E94CC0160914201802F13CF0E94AE
:100B30007102CE0133CF0E947102CE017CCF8C16A0
:100B40009D065CF0C8018A199B09079734F4C4011B
:100B50008C1B9D0B02970CF4A1CF0E94CC01662D3B
:100B6000872D0E94710260E08BE691E00E94830273
:100B700032CE0A151B0534F7F0CF8F929F92AF92B9
:100B8000BF92CF92DF92EF92FF92CF93DF93EC016F
:100B9000688179818A819B81611571058105910543
:100BA00021F464E279ED8BE597E02DE133EF41E04C
:100BB00050E00E94610649015A019B01AC01A7EA7D
:100BC000B1E40E9480066B017C01ACEEB4EFA5019C
:100BD00094010E948E06C60ED71EE81EF91EF7FE6F
:100BE00006C081E0C81AD108E10880E8F80AC88286
:100BF000D982EA82FB82C701B6019F77DF91CF914C
:100C0000FF90EF90DF90CF90BF90AF909F908F902C
:100C100008958F929F92AF92BF92CF92DF92EF9200
:100C2000FF92609148017091490180914A01909131
:100C30004B01611571058105910521F464E279ED9F
:100C40008BE597E02DE133EF41E050E00E94610633
:100C500049015A019B01AC01A7EAB1E40E94800658
:100C60006B017C01ACEEB4EFA50194010E948E06ED
:100C7000C60ED71EE81EF91EF7FE06C081E0C81A90
:100C8000D108E10880E8F80AC0924801D0924901F1
:100C9000E0924A01F0924B01C701B6019F77FF90A5
:100CA000EF90DF90CF90BF90AF909F908F9008957E
:100CB000609348017093490180934A0190934B01DE
:100CC0000895052E97FB1EF400940E94780657FDA8
:100CD00007D00E94930607FC03D04EF40C947806CC
:100CE00050954095309521953F4F4F4F5F4F089558
:100CF00090958095709561957F4F8F4F9F4F089588
:100D00000E94B506A59F900DB49F900DA49F800DE5
:100D1000911D11240895B7FF0C9480060E9480064F
:100D2000821B930B0895A1E21A2EAA1BBB1BFD0187
:100D30000DC0AA1FBB1FEE1FFF1FA217B307E407BA
:100D4000F50720F0A21BB30BE40BF50B661F771F12
:100D5000881F991F1A9469F76095709580959095F2
:100D60009B01AC01BD01CF010895A29FB001B39FCB
:100D7000C001A39F700D811D1124911DB29F700DA4
:100D8000811D1124911D0895EE0FFF1F0590F49110
:080D9000E02D0994F894FFCF57
:100D98000E0E150E040E11110E171E1F181F1A1213
:100DA8001F1F151F041B1B1B0000000A000E11004B
:100DB800040E15040404040004040404150E0400BD
:100DC8000804021F020408000204081F08040200A5
:100DD80007000100190019000100000000000000D0
:0E0DE8008302F20020011F010D0A002A000004
:00000001FF
